:103C00000C94341E0C943F1F0C943F1F0C943F1FC8
:103C10000C943F1F0C943F1F0C943F1F0C943F1FAC
:103C20000C943F1F0C943F1F0C943F1F0C943F1F9C
:103C30000C943F1F0C943F1F0C943F1F0C943F1F8C
:103C40000C943F1F0C943F1F0C943F1F0C943F1F7C
:103C50000C943F1F0C943F1F0C943F1F0C943F1F6C
:103C60000C943F1F0C943F1F11241FBECFEFD4E0D4
:103C7000DEBFCDBF11E0A0E0B1E0EAEFFEE302C09D
:103C800005900D92A030B107D9F711E0A0E0B1E0A6
:103C900001C01D92A030B107E1F70E94511E0C94A3
:103CA0007B1F0F92CDB7DEB7112484B714BE83FFFC
:103CB00002C00E94731F85E08093810082E08093A0
:103CC000C00088E18093C10096E09093C20099E122
:103CD0009093C400809360008FE080936000259AE9
:103CE00026E088E19EEF31E0909385008093840088
:103CF00036BBB09BFECF1D9AA8952150A9F7222470
:103D0000332498E1E92E28E0B22EAA24A39435E0CA
:103D1000932E41E1842E53E0F52E0E94481F8134FA
:103D200091F40E94481F89830E94541F8981823820
:103D300011F485E005C0813811F484E001C083E00E
:103D40000E94411F98C0823411F484E103C085347D
:103D500021F485E00E94631F8EC0853569F40E94BE
:103D6000481F282E33240E94481F582E44242428FC
:103D70003528220C331C7DC0863529F484E00E944E
:103D8000631F80E0DDCF843609F043C00E94481FE6
:103D90000E94481FD82E0E94481F80E0281688E302
:103DA000380618F4F101F7BEE89500E011E00E9432
:103DB000481FF80181938F01DE16C9F7F0E02F1636
:103DC000F8E33F0618F0F101F7BEE8950E94541F92
:103DD00007B600FCFDCFF101A0E0B1E08C9190E0CE
:103DE00011967C90119766248629972912960C01CA
:103DF000A7BEE8951124329681E0A038B80771F784
:103E0000F10197BEE89507B600FCFDCF87BEE895A7
:103E100032C08437E1F40E94481F0E94481FC82E18
:103E20000E94481F0E94541FDC2CF10101C0F801C0
:103E30008F010F5F1F4F84910E94411FDA94B9F7E1
:103E40000894211C311CCA942C0C311C14C08537D9
:103E500051F40E94541F8EE10E94411F84E90E9488
:103E6000411F86E06DCF813521F4E0926000B09271
:103E700060000E94541F80E10E94411F4ECF0C94AD
:103E8000001E9091C00095FFFCCF8093C60008955E
:103E90008091C00087FFFCCF8091C00084FD01C0ED
:103EA000A8958091C60008950E94481F803239F07D
:103EB00088E18093600088E080936000FFCF84E118
:103EC0000E94411F0895CF93C82F0E94481FC150E0
:103ED000E1F70E94541FCF910895E0E6F0E098E1E9
:103EE000908380830895E0E6F0E088E1808310828B
:0A3EF000EE27FF270994F894FFCF96
:0400000300003C00BD
:00000001FF
