:101C000019C008C107C106C105C104C103C102C191
:101C100001C100C1FFC0FEC0FDC0FCC0FBC0FAC0D6
:101C2000F9C0F8C0F7C0F6C0F5C0F4C0F3C0F2C008
:101C3000F1C0F0C011241FBECFEFD4E0DEBFCDBF96
:101C400011E0A0E0B1E0E6E8FEE102C005900D92EF
:101C5000A030B107D9F711E0A0E0B1E001C01D92BA
:101C6000A030B107E1F701D00CC10F92CDB7DEB7BC
:101C7000112484B714BE83FDFCD085E080938100DD
:101C800082E08093C00088E18093C10096E0909349
:101C9000C20099E19093C400809360008FE080932C
:101CA0006000259A26E088E19EEF31E09093850060
:101CB0008093840036BBB09BFECF1D9AA89521501F
:101CC000A9F72224332498E1E92E28E0B22EAA2491
:101CD000A39435E0932E41E1842E53E0F52EA2D05B
:101CE000813479F49FD08983A9D08981823811F415
:101CF00085E005C0813811F484E001C083E08BD019
:101D000086C0823411F484E103C0853419F485E07F
:101D1000A2D07DC0853559F485D0282E332482D0B9
:101D2000582E442424283528220C331C6FC08635B5
:101D300021F484E090D080E0E2CF843609F03EC008
:101D400071D070D0D82E6ED080E0281688E1380689
:101D500018F4F101F7BEE89500E011E063D0F80156
:101D600081938F01DE16D1F7F0E02F16F8E13F06E0
:101D700018F0F101F7BEE89561D007B600FCFDCF81
:101D8000F101A0E0B1E08C9190E011967C90119768
:101D900066248629972912960C01A7BEE89511247E
:101DA000329681E0A034B80771F7F10197BEE8954B
:101DB00007B600FCFDCF87BEE89529C08437B9F48B
:101DC00031D030D0C82E2ED039D0DC2CF10101C05A
:101DD000F8018F010F5F1F4F84911DD0DA94C1F776
:101DE0000894211C311CCA942C0C311C10C085375E
:101DF00039F424D08EE10FD083E90DD08AE07FCF73
:101E0000813521F4E0926000B092600017D080E14B
:101E100002D065CFF5CE9091C00095FFFCCF8093A6
:101E2000C60008958091C00087FFFCCF8091C0005C
:101E300084FD01C0A8958091C6000895F3DF80322B
:101E400039F088E18093600088E080936000FFCFE4
:101E500084E1E1DF0895CF93C82FE4DFC150E9F7B3
:101E6000EDDFCF910895E0E6F0E098E19083808384
:101E70000895E0E6F0E088E180831082EE27FF27F6
:061E80000994F894FFCF65
:0400000300001C00DD
:00000001FF
