:101C000019C033C032C031C030C02FC02EC02DC06B
:101C10002CC02BC02AC029C028C027C026C025C080
:101C200024C023C022C021C020C01FC01EC01DC0B0
:101C30001CC01BC011241FBECFEFD4E0DEBFCDBF40
:101C400011E0A0E0B1E0ECEEFFE102C005900D92E2
:101C5000A230B107D9F712E0A2E0B1E001C01D92B5
:101C6000AA30B107E1F74AD0BFC1CACF5D9BFECF12
:101C70008CB90895CF92DF92EF92FF92CC24DD24AD
:101C8000760113C00894C11CD11CE11CF11C81E831
:101C9000C81684E8D8068EE1E80680E0F80628F049
:101CA000E0910201F091030109955F9BEBCF8CB1AC
:101CB000FF90EF90DF90CF900895CF93DF93D82FD0
:101CC000C0E002C0D7DFCF5FCD17E1F7DF91CF9142
:101CD0000895CF93C82FCEDF803231F484E1C6DF80
:101CE0008C2FC4DF80E1C2DFCF910895C3DF803243
:101CF00021F484E1BBDF80E1B9DF0895000010BC6E
:101D00008CE089B988E18AB986E880BDBD9A1092D5
:101D1000080250E220E030E009C088B3852788BB84
:101D2000C9010197F1F74F5F409308024091080203
:101D3000403198F39FDF803381F1813399F49ADF4A
:101D40008032C1F784E192DF81E490DF86E58EDFA7
:101D500082E58CDF80E28ADF89E488DF83E586DF45
:101D600080E523C1803429F485DF8638B0F082DF36
:101D700014C0813471F47EDF803811F482E01DC11B
:101D8000813811F481E019C1823809F015C182E16E
:101D900014C1823421F484E190DFA8DFCBCF8534F5
:101DA00011F485E0F9CF8035C1F38135B1F3823587
:101DB000A1F3853539F45EDF809304015BDF809306
:101DC0000501EBCF863519F484E077DFF5C0843662
:101DD00009F094C04FDF809307024CDF8093060226
:101DE000809109028E7F8093090244DF853429F4B3
:101DF0008091090281608093090236E0C32E31E0B0
:101E0000D32E760100E010E006C034DFF7018193A5
:101E10007F010F5F1F4F8091060290910702081704
:101E2000190798F327DF803209F084CF80910902E7
:101E300080FD15C01EC0F60161916F018091040103
:101E400090910501C4D08091040190910501019603
:101E500090930501809304010F5F1F4F02C000E0C3
:101E600010E080910602909107020817190718F3F5
:101E700043C0F894E199FECF1127E0910401F0915D
:101E80000501EE0FFF1FC6E0D1E0809106029091A0
:101E9000070280FF01C00196103051F422D003E008
:101EA00000935700E8951DD001E100935700E89595
:101EB0000990199016D001E000935700E89513950A
:101EC000103258F011270DD005E000935700E89527
:101ED00008D001E100935700E8953296029739F057
:101EE000DBCF0091570001700130D9F30895103015
:101EF00011F00296E7CF112484E157C0843709F02E
:101F000047C0B8DE80930702B5DE80930602B2DEDA
:101F100090910902853421F49160909309020DC0DB
:101F20009E7F909309028091040190910501880F92
:101F3000991F90930501809304019CDE803209F083
:101F4000F9CE84E193DE00E010E01AC0209109028E
:101F5000809104019091050120FF02C030D004C09F
:101F600021FD03C0FC01849181DE809104019091E8
:101F70000501019690930501809304010F5F1F4FA7
:101F8000809106029091070208171907F8F20EC017
:101F9000853779F46FDE803209F0CCCE84E166DEDD
:101FA0008EE164DE83E962DE87E060DE80E15EDE92
:101FB000C1CE863709F0BECE80E08BDEBBCEE19984
:101FC000FECF9FBB8EBBE09A99278DB30895262F35
:101FD000E199FECF9FBB8EBB2DBB0FB6F894E29A62
:0C1FE000E19A0FBE01960895F894FFCF1F
:021FEC00800073
:0400000300001C00DD
:00000001FF
