:101C000012C02CC02BC02AC029C028C027C026C0A3
:101C100025C024C023C022C021C020C01FC01EC0B8
:101C20001DC01CC01BC011241FBECFE5D4E0DEBF09
:101C3000CDBF10E0A0E6B0E0EEEDFFE102C0059000
:101C40000D92A236B107D9F711E0A2E6B0E001C0CB
:101C50001D92AA36B107E1F74AD0BFC1D1CF5D9B33
:101C6000FECF8CB90895CF92DF92EF92FF92CC24F1
:101C7000DD24760113C00894C11CD11CE11CF11CA9
:101C800081E8C81684E8D8068EE1E80680E0F80608
:101C900028F0E0916200F091630009955F9BEBCF23
:101CA0008CB1FF90EF90DF90CF900895CF93DF93AA
:101CB000D82FC0E002C0D7DFCF5FCD17E1F7DF91AB
:101CC000CF910895CF93C82FCEDF803231F484E1D5
:101CD000C6DF8C2FC4DF80E1C2DFCF910895C3DF60
:101CE000803221F484E1BBDF80E1B9DF0895000098
:101CF00010BC8CE089B988E18AB986E880BDBD9ABC
:101D00001092680150E220E030E009C088B38527D6
:101D100088BBC9010197F1F74F5F4093680140917B
:101D20006801403198F39FDF803381F1813399F46A
:101D30009ADF8032C1F784E192DF81E490DF86E5AB
:101D40008EDF82E58CDF80E28ADF89E488DF83E54D
:101D500086DF80E523C1803429F485DF8638B0F042
:101D600082DF14C0813471F47EDF803811F482E0A8
:101D70001DC1813811F481E019C1823809F015C103
:101D800082E114C1823421F484E190DFA8DFCBCF5B
:101D9000853411F485E0F9CF8035C1F38135B1F395
:101DA0008235A1F3853539F45EDF809364005BDF13
:101DB00080936500EBCF863519F484E077DFF5C0BA
:101DC000843609F094C04FDF809367014CDF809325
:101DD0006601809169018E7F8093690144DF8534BB
:101DE00029F48091690181608093690136E6C32EF0
:101DF00030E0D32E760100E010E006C034DFF701BA
:101E000081937F010F5F1F4F809166019091670161
:101E10000817190798F327DF803209F084CF8091E3
:101E2000690180FD15C01EC0F60161916F018091AE
:101E3000640090916500C4D0809164009091650029
:101E4000019690936500809364000F5F1F4F02C05E
:101E500000E010E080916601909167010817190772
:101E600018F343C0F894E199FECF1127E091640084
:101E7000F0916500EE0FFF1FC6E6D0E0809166018D
:101E80009091670180FF01C00196103051F422D07B
:101E900003E000935700E8951DD001E1009357003F
:101EA000E8950990199016D001E000935700E89545
:101EB0001395103258F011270DD005E0009357000C
:101EC000E89508D001E100935700E8953296029713
:101ED00039F0DBCF0091570001700130D9F308953C
:101EE000103011F00296E7CF112484E157C08437F7
:101EF00009F047C0B8DE80936701B5DE80936601C4
:101F0000B2DE90916901853421F49160909369016A
:101F10000DC09E7F9093690180916400909165004F
:101F2000880F991F90936500809364009CDE803237
:101F300009F0F9CE84E193DE00E010E01AC02091B0
:101F40006901809164009091650020FF02C030D04B
:101F500004C021FD03C0FC01849181DE80916400F6
:101F600090916500019690936500809364000F5FE7
:101F70001F4F809166019091670108171907F8F2C9
:101F80000EC0853779F46FDE803209F0CCCE84E163
:101F900066DE8EE164DE83E962DE87E060DE80E19A
:101FA0005EDEC1CE863709F0BECE80E08BDEBBCED2
:101FB000E199FECF9FBB8EBBE09A99278DB3089520
:101FC000262FE199FECF9FBB8EBB2DBB0FB6F89499
:0E1FD000E29AE19A0FBE01960895F894FFCFB1
:021FDE00800081
:0400000300001C00DD
:00000001FF
