:101E00000F92CDB7DEB711248FE594E09EBF8DBF52
:101E100084B714BE81FFD8D085E08EBD82E08BB937
:101E200088E18AB986E880BD82E289B98EE0B8D0BF
:101E3000BD9A26E088E19EEF54E040E29DBD8CBD56
:101E400058BF08B602FEFDCF38B3342738BBA8957B
:101E50002150A1F700E010E0EE24E394E5E0DE2E4F
:101E6000F1E1CF2EA3E0FA2E94D0813479F491D011
:101E700089839AD08981823811F486E005C081383F
:101E800011F484E001C083E080D07CC0823411F47E
:101E900084E103C0853419F485E08ED073C08535A4
:101EA00069F477D0882E992474D0082F10E0102F71
:101EB000002708291929000F111F63C0863521F456
:101EC00084E07AD080E0E0CF843609F03FC061D072
:101ED00060D0B82E5ED088E10030180718F4F80101
:101EE000F7BEE895812C51E0952E53D0F4018193F3
:101EF0004F01BE16D1F7F8E100301F0718F0F801C6
:101F0000F7BEE89551D007B600FCFDCFF801A0E080
:101F1000B1E02C9130E011968C91119790E0982FC0
:101F20008827822B932B12960C01E7BEE89511248B
:101F3000329681E0A034B80761F7F801D7BEE89582
:101F400007B600FCFDCFC7BEE8951CC0843761F41E
:101F500020D01FD0B82E1DD027D0F80185918F0139
:101F600014D0BA94D1F70EC0853739F41DD08EE164
:101F70000CD083E90AD087E087CF813511F488E05F
:101F80000FD012D080E101D06FCF5D9BFECF8CB916
:101F900008955F9BFECF5C9901C0A8958CB1089510
:101FA00098E191BD81BD0895F4DF803219F088E099
:101FB000F7DFFFCF84E1E9CFCF93C82FEADFC1502D
:101FC000E9F7F2DFCF910895282E80E0E9DFEE27D0
:041FD000FF2709944A
:021FFE000604D7
:0400000300001E00DB
:00000001FF
