:103E0000112484B714BE81FFFCD085E0809381002B
:103E100082E08093C00088E18093C10086E08093B7
:103E2000C20082E28093C4008EE0D5D0259A26E0BD
:103E300088E19EEF31E0909385008093840036BB4B
:103E4000B09BFECF1D9AA8952150A9F700E010E085
:103E5000EE24E394F5E0DF2EA1E1CA2EB3E0FB2EC1
:103E6000AED0813489F4ABD08983BBD089818238CC
:103E700019F484E09DD099C0813819F484E098D079
:103E800094C083E095D091C0823419F484E1B1D01C
:103E90008CC0853419F485E0ACD087C0853571F4C9
:103EA0008ED0A82EBB248BD0082F10E0102F002717
:103EB0000A291B29000F111F94D077C0863529F4D9
:103EC00084E097D080E074D070C0843609F043C09D
:103ED00076D075D0B82E73D088E30030180738F448
:103EE000F801F7BEE895812C61E0962E03C0812C85
:103EF00051E0952E64D0F40181934F01BE16D1F7A5
:103F0000F8E300301F0718F0F801F7BEE89569D014
:103F100007B600FCFDCFF801A0E0B1E02C9130E045
:103F200011968C91119790E0982F8827822B932BD4
:103F300012960C01E7BEE8951124329681E0A03874
:103F4000B80761F7F801D7BEE89507B600FCFDCFCA
:103F5000C7BEE8952AC08437B9F431D030D0A82E36
:103F60002ED03FD0BA2CF80101C0F4014F010894C3
:103F7000811C911C84911CD0BA94B9F70F5F1F4F1C
:103F8000AA940A0D111D11C0853741F42AD08EE183
:103F90000FD084E90DD086E00BD007C0813521F425
:103FA00088E019D01ED001C01CD080E101D058CFCC
:103FB0009091C00095FFFCCF8093C600089580913A
:103FC000C00087FFFCCF8091C00084FD01C0A89590
:103FD0008091C6000895E0E6F0E098E19083808348
:103FE0000895EDDF803219F088E0F5DFFFCF84E13E
:103FF000DFCFCF93C82FE3DFC150E9F7F2DFCF91D6
:0C400000089580E0E8DFEE27FF27099418
:023FFE000404B9
:0400000300003E00BB
:00000001FF
