:101E000011248FE594E09EBF8DBF84B714BE81FF7F
:101E1000EFD085E08EBD82E08BB988E18AB986E893
:101E200080BD82E289B98EE0CFD0BD9A26E088E1FC
:101E30009EEF54E040E29DBD8CBD58BF08B602FE47
:101E4000FDCF38B3342738BBA8952150A1F700E067
:101E500010E0EE24E394F5E0DF2EA1E1CA2EB3E01A
:101E6000FB2EABD0813489F4A8D08983B1D089818D
:101E7000823819F484E09DD099C0813819F484E047
:101E800098D094C083E095D091C0823419F484E155
:101E9000A7D08CC0853419F485E0A2D087C08535E1
:101EA00071F48BD0A82EBB2488D0082F10E0102FFF
:101EB00000270A291B29000F111F8AD077C08635F9
:101EC00029F484E08DD080E074D070C0843609F0AD
:101ED00043C073D072D0B82E70D088E1003018079C
:101EE00038F4F801F7BEE895812C61E0962E03C026
:101EF000812C51E0952E61D0F40181934F01BE16E3
:101F0000D1F7F8E100301F0718F0F801F7BEE895A7
:101F10005FD007B600FCFDCFF801A0E0B1E02C9146
:101F200030E011968C91119790E0982F8827822BA2
:101F3000932B12960C01E7BEE8951124329681E0AE
:101F4000A034B80761F7F801D7BEE89507B600FCE2
:101F5000FDCFC7BEE8952AC08437B9F42ED02DD066
:101F6000A82E2BD035D0BA2CF80101C0F4014F01B6
:101F70000894811C911C84911CD0BA94B9F70F5F0E
:101F80001F4FAA940A0D111D11C0853741F420D0AE
:101F90008EE10FD083E90DD087E00BD007C08135EB
:101FA00021F488E011D014D001C012D080E101D01A
:101FB00058CF5D9BFECF8CB908955F9BFECF5C9997
:101FC00001C0A8958CB1089598E191BD81BD089597
:101FD000F4DF803219F088E0F7DFFFCF84E1E9CF4A
:101FE000CF93C82FEADFC150E9F7F2DFCF91089510
:0A1FF00080E0EADFEE27FF270994E6
:021FFE000404D9
:0400000300001E00DB
:00000001FF
